{
  "contractName": "Box",
  "abi": [
    {
      "inputs": [
        {
          "internalType": "contract Auth",
          "name": "auth",
          "type": "address"
        }
      ],
      "stateMutability": "nonpayable",
      "type": "constructor"
    },
    {
      "anonymous": false,
      "inputs": [
        {
          "indexed": false,
          "internalType": "uint256",
          "name": "value",
          "type": "uint256"
        }
      ],
      "name": "ValueChanged",
      "type": "event"
    },
    {
      "inputs": [
        {
          "internalType": "uint256",
          "name": "value",
          "type": "uint256"
        }
      ],
      "name": "store",
      "outputs": [],
      "stateMutability": "nonpayable",
      "type": "function"
    },
    {
      "inputs": [],
      "name": "retrieve",
      "outputs": [
        {
          "internalType": "uint256",
          "name": "",
          "type": "uint256"
        }
      ],
      "stateMutability": "view",
      "type": "function"
    }
  ],
  "bytecode": "0x608060405234801561001057600080fd5b5060405161029f38038061029f8339818101604052810190610032919061008e565b80600160006101000a81548173ffffffffffffffffffffffffffffffffffffffff021916908373ffffffffffffffffffffffffffffffffffffffff16021790555050610112565b600081519050610088816100fb565b92915050565b6000602082840312156100a057600080fd5b60006100ae84828501610079565b91505092915050565b60006100c2826100db565b9050919050565b60006100d4826100b7565b9050919050565b600073ffffffffffffffffffffffffffffffffffffffff82169050919050565b610104816100c9565b811461010f57600080fd5b50565b61017e806101216000396000f3fe608060405234801561001057600080fd5b50600436106100365760003560e01c80632e64cec11461003b5780636057361d14610059575b600080fd5b610043610075565b604051610050919061010c565b60405180910390f35b610073600480360381019061006e91906100d4565b61007e565b005b60008054905090565b806000819055507f93fe6d397c74fdf1402a8b72e47b68512f0510d7b98a4bc4cbdf6ac7108b3c59816040516100b4919061010c565b60405180910390a150565b6000813590506100ce81610131565b92915050565b6000602082840312156100e657600080fd5b60006100f4848285016100bf565b91505092915050565b61010681610127565b82525050565b600060208201905061012160008301846100fd565b92915050565b6000819050919050565b61013a81610127565b811461014557600080fd5b5056fea2646970667358221220cf4df933487279f1dc62d4cb7902991dc33486eea81487545dfbde5794d652ee64736f6c63430008000033",
  "immutableReferences": {},
  "source": "// SPDX-License-Identifier: MIT\npragma solidity ^0.8.0;\n\nimport \"./Auth.sol\";\n\n\n\ncontract Box {\n    uint256 private _value; \n    Auth private _auth;\n\n    //Emitted when the stored value changes\n    event ValueChanged(uint256 value);\n\n    //constructor\n    constructor(Auth auth) {\n        _auth = auth;\n    }\n\n    function store(uint256 value) public {\n        _value = value;  //new value\n        emit ValueChanged(value); //store it as a piece of logs.\n    }\n\n    function retrieve() public view returns (uint256) {\n        return _value;\n    }\n\n\n}",
  "sourcePath": "/Users/zoint/Desktop/Projects/SmartContractApplications/SolidityContracts/OpenzeppelinSample/contracts/Box.sol",
  "compiler": {
    "name": "solc",
    "version": "0.8.0+commit.c7dfd78e.Emscripten.clang"
  },
  "schemaVersion": "3.4.2",
  "updatedAt": "2021-08-29T17:55:36.699Z",
  "devdoc": {
    "kind": "dev",
    "methods": {},
    "version": 1
  },
  "userdoc": {
    "kind": "user",
    "methods": {},
    "version": 1
  }
}