{
  "contractName": "OpenZeppelinTest",
  "abi": [
    {
      "anonymous": false,
      "inputs": [
        {
          "indexed": true,
          "internalType": "address",
          "name": "previousOwner",
          "type": "address"
        },
        {
          "indexed": true,
          "internalType": "address",
          "name": "newOwner",
          "type": "address"
        }
      ],
      "name": "OwnershipTransferred",
      "type": "event"
    },
    {
      "anonymous": false,
      "inputs": [
        {
          "indexed": false,
          "internalType": "uint256",
          "name": "value",
          "type": "uint256"
        }
      ],
      "name": "ValueChanged",
      "type": "event"
    },
    {
      "inputs": [],
      "name": "owner",
      "outputs": [
        {
          "internalType": "address",
          "name": "",
          "type": "address"
        }
      ],
      "stateMutability": "view",
      "type": "function"
    },
    {
      "inputs": [],
      "name": "renounceOwnership",
      "outputs": [],
      "stateMutability": "nonpayable",
      "type": "function"
    },
    {
      "inputs": [
        {
          "internalType": "address",
          "name": "newOwner",
          "type": "address"
        }
      ],
      "name": "transferOwnership",
      "outputs": [],
      "stateMutability": "nonpayable",
      "type": "function"
    },
    {
      "inputs": [
        {
          "internalType": "uint256",
          "name": "value",
          "type": "uint256"
        }
      ],
      "name": "store",
      "outputs": [],
      "stateMutability": "nonpayable",
      "type": "function"
    }
  ],
  "bytecode": "0x608060405234801561001057600080fd5b5061002d61002261003260201b60201c565b61003a60201b60201c565b6100fe565b600033905090565b60008060009054906101000a900473ffffffffffffffffffffffffffffffffffffffff169050816000806101000a81548173ffffffffffffffffffffffffffffffffffffffff021916908373ffffffffffffffffffffffffffffffffffffffff1602179055508173ffffffffffffffffffffffffffffffffffffffff168173ffffffffffffffffffffffffffffffffffffffff167f8be0079c531659141344cd1fd0a4f28419497f9722a3daafe3b4186f6b6457e060405160405180910390a35050565b61064a8061010d6000396000f3fe608060405234801561001057600080fd5b506004361061004c5760003560e01c80636057361d14610051578063715018a61461006d5780638da5cb5b14610077578063f2fde38b14610095575b600080fd5b61006b60048036038101906100669190610436565b6100b1565b005b61007561016e565b005b61007f6101f6565b60405161008c9190610523565b60405180910390f35b6100af60048036038101906100aa919061040d565b61021f565b005b6100b9610317565b73ffffffffffffffffffffffffffffffffffffffff166100d76101f6565b73ffffffffffffffffffffffffffffffffffffffff161461012d576040517f08c379a00000000000000000000000000000000000000000000000000000000081526004016101249061055e565b60405180910390fd5b806001819055507f93fe6d397c74fdf1402a8b72e47b68512f0510d7b98a4bc4cbdf6ac7108b3c5981604051610163919061057e565b60405180910390a150565b610176610317565b73ffffffffffffffffffffffffffffffffffffffff166101946101f6565b73ffffffffffffffffffffffffffffffffffffffff16146101ea576040517f08c379a00000000000000000000000000000000000000000000000000000000081526004016101e19061055e565b60405180910390fd5b6101f4600061031f565b565b60008060009054906101000a900473ffffffffffffffffffffffffffffffffffffffff16905090565b610227610317565b73ffffffffffffffffffffffffffffffffffffffff166102456101f6565b73ffffffffffffffffffffffffffffffffffffffff161461029b576040517f08c379a00000000000000000000000000000000000000000000000000000000081526004016102929061055e565b60405180910390fd5b600073ffffffffffffffffffffffffffffffffffffffff168173ffffffffffffffffffffffffffffffffffffffff16141561030b576040517f08c379a00000000000000000000000000000000000000000000000000000000081526004016103029061053e565b60405180910390fd5b6103148161031f565b50565b600033905090565b60008060009054906101000a900473ffffffffffffffffffffffffffffffffffffffff169050816000806101000a81548173ffffffffffffffffffffffffffffffffffffffff021916908373ffffffffffffffffffffffffffffffffffffffff1602179055508173ffffffffffffffffffffffffffffffffffffffff168173ffffffffffffffffffffffffffffffffffffffff167f8be0079c531659141344cd1fd0a4f28419497f9722a3daafe3b4186f6b6457e060405160405180910390a35050565b6000813590506103f2816105e6565b92915050565b600081359050610407816105fd565b92915050565b60006020828403121561041f57600080fd5b600061042d848285016103e3565b91505092915050565b60006020828403121561044857600080fd5b6000610456848285016103f8565b91505092915050565b610468816105aa565b82525050565b600061047b602683610599565b91507f4f776e61626c653a206e6577206f776e657220697320746865207a65726f206160008301527f64647265737300000000000000000000000000000000000000000000000000006020830152604082019050919050565b60006104e1602083610599565b91507f4f776e61626c653a2063616c6c6572206973206e6f7420746865206f776e65726000830152602082019050919050565b61051d816105dc565b82525050565b6000602082019050610538600083018461045f565b92915050565b600060208201905081810360008301526105578161046e565b9050919050565b60006020820190508181036000830152610577816104d4565b9050919050565b60006020820190506105936000830184610514565b92915050565b600082825260208201905092915050565b60006105b5826105bc565b9050919050565b600073ffffffffffffffffffffffffffffffffffffffff82169050919050565b6000819050919050565b6105ef816105aa565b81146105fa57600080fd5b50565b610606816105dc565b811461061157600080fd5b5056fea26469706673582212207afe35b284ebf176b53ab20219a33843ecd1ea357af6168443ed3f5382b62a6c64736f6c63430008000033",
  "immutableReferences": {},
  "source": "// SPDX-License-Identifier: MIT\npragma solidity ^0.8.0; \n\nimport \"@openzeppelin/contracts/access/Ownable.sol\";\n\n// import \"@openzeppelin/contracts/token/ERC721/ERC721.sol\";\n\ncontract OpenZeppelinTest is Ownable{ \n\n    uint256 private _value; \n\n    event ValueChanged(uint256 value);\n\n    //The onlyOwner modifier restricts who can call the store function.\n    function store(uint256 value) public onlyOwner {\n        _value = value; \n        emit ValueChanged(value);\n    }\n}\n",
  "sourcePath": "/Users/zoint/Desktop/Projects/SmartContractApplications/SolidityContracts/OpenzeppelinSample/contracts/OpenZeppelinTest.sol",
  "compiler": {
    "name": "solc",
    "version": "0.8.0+commit.c7dfd78e.Emscripten.clang"
  },
  "schemaVersion": "3.4.2",
  "updatedAt": "2021-08-29T18:00:05.622Z",
  "devdoc": {
    "kind": "dev",
    "methods": {
      "owner()": {
        "details": "Returns the address of the current owner."
      },
      "renounceOwnership()": {
        "details": "Leaves the contract without owner. It will not be possible to call `onlyOwner` functions anymore. Can only be called by the current owner. NOTE: Renouncing ownership will leave the contract without an owner, thereby removing any functionality that is only available to the owner."
      },
      "transferOwnership(address)": {
        "details": "Transfers ownership of the contract to a new account (`newOwner`). Can only be called by the current owner."
      }
    },
    "version": 1
  },
  "userdoc": {
    "kind": "user",
    "methods": {},
    "version": 1
  }
}